{
    "_format": "hh-sol-artifact-1",
    "contractName": "ProductVerifier",
    "sourceName": "contracts/Customer.sol",
    "abi": [
        {
            "inputs": [
                {
                    "internalType": "address",
                    "name": "_supplierContractAddress",
                    "type": "address"
                }
            ],
            "stateMutability": "nonpayable",
            "type": "constructor"
        },
        {
            "inputs": [
                {
                    "internalType": "uint256",
                    "name": "_itemIndex",
                    "type": "uint256"
                },
                {
                    "internalType": "string",
                    "name": "_purchaseLocation",
                    "type": "string"
                }
            ],
            "name": "verifyProduct",
            "outputs": [
                {
                    "internalType": "bool",
                    "name": "",
                    "type": "bool"
                }
            ],
            "stateMutability": "view",
            "type": "function"
        }
    ],
    "bytecode": "0x608060405234801561001057600080fd5b506040516108a03803806108a08339818101604052810190610032919061013c565b806000806101000a81548173ffffffffffffffffffffffffffffffffffffffff021916908373ffffffffffffffffffffffffffffffffffffffff16021790555060008054906101000a900473ffffffffffffffffffffffffffffffffffffffff16600160006101000a81548173ffffffffffffffffffffffffffffffffffffffff021916908373ffffffffffffffffffffffffffffffffffffffff16021790555050610169565b600080fd5b600073ffffffffffffffffffffffffffffffffffffffff82169050919050565b6000610109826100de565b9050919050565b610119816100fe565b811461012457600080fd5b50565b60008151905061013681610110565b92915050565b600060208284031215610152576101516100d9565b5b600061016084828501610127565b91505092915050565b610728806101786000396000f3fe608060405234801561001057600080fd5b506004361061002b5760003560e01c80633267721c14610030575b600080fd5b61004a60048036038101906100459190610428565b610060565b604051610057919061049f565b60405180910390f35b6000806000600160009054906101000a900473ffffffffffffffffffffffffffffffffffffffff1673ffffffffffffffffffffffffffffffffffffffff166302b037e6866040518263ffffffff1660e01b81526004016100c091906104c9565b600060405180830381865afa1580156100dd573d6000803e3d6000fd5b505050506040513d6000823e3d601f19601f820116820180604052508101906101069190610593565b94505050509150600060018060009054906101000a900473ffffffffffffffffffffffffffffffffffffffff1673ffffffffffffffffffffffffffffffffffffffff1663b4e6fabd6040518163ffffffff1660e01b8152600401602060405180830381865afa15801561017d573d6000803e3d6000fd5b505050506040513d601f19601f820116820180604052508101906101a19190610662565b6101ab91906106be565b90506000600160009054906101000a900473ffffffffffffffffffffffffffffffffffffffff1673ffffffffffffffffffffffffffffffffffffffff166302b037e6836040518263ffffffff1660e01b815260040161020a91906104c9565b600060405180830381865afa158015610227573d6000803e3d6000fd5b505050506040513d6000823e3d601f19601f820116820180604052508101906102509190610593565b945050505050600084118015610273575085805190602001208180519060200120145b801561028c575085805190602001208380519060200120145b94505050505092915050565b6000604051905090565b600080fd5b600080fd5b6000819050919050565b6102bf816102ac565b81146102ca57600080fd5b50565b6000813590506102dc816102b6565b92915050565b600080fd5b600080fd5b6000601f19601f8301169050919050565b7f4e487b7100000000000000000000000000000000000000000000000000000000600052604160045260246000fd5b610335826102ec565b810181811067ffffffffffffffff82111715610354576103536102fd565b5b80604052505050565b6000610367610298565b9050610373828261032c565b919050565b600067ffffffffffffffff821115610393576103926102fd565b5b61039c826102ec565b9050602081019050919050565b82818337600083830152505050565b60006103cb6103c684610378565b61035d565b9050828152602081018484840111156103e7576103e66102e7565b5b6103f28482856103a9565b509392505050565b600082601f83011261040f5761040e6102e2565b5b813561041f8482602086016103b8565b91505092915050565b6000806040838503121561043f5761043e6102a2565b5b600061044d858286016102cd565b925050602083013567ffffffffffffffff81111561046e5761046d6102a7565b5b61047a858286016103fa565b9150509250929050565b60008115159050919050565b61049981610484565b82525050565b60006020820190506104b46000830184610490565b92915050565b6104c3816102ac565b82525050565b60006020820190506104de60008301846104ba565b92915050565b6000815190506104f3816102b6565b92915050565b60005b838110156105175780820151818401526020810190506104fc565b60008484015250505050565b600061053661053184610378565b61035d565b905082815260208101848484011115610552576105516102e7565b5b61055d8482856104f9565b509392505050565b600082601f83011261057a576105796102e2565b5b815161058a848260208601610523565b91505092915050565b600080600080600060a086880312156105af576105ae6102a2565b5b60006105bd888289016104e4565b95505060206105ce888289016104e4565b945050604086015167ffffffffffffffff8111156105ef576105ee6102a7565b5b6105fb88828901610565565b935050606086015167ffffffffffffffff81111561061c5761061b6102a7565b5b61062888828901610565565b925050608086015167ffffffffffffffff811115610649576106486102a7565b5b61065588828901610565565b9150509295509295909350565b600060208284031215610678576106776102a2565b5b6000610686848285016104e4565b91505092915050565b7f4e487b7100000000000000000000000000000000000000000000000000000000600052601160045260246000fd5b60006106c9826102ac565b91506106d4836102ac565b92508282039050818111156106ec576106eb61068f565b5b9291505056fea2646970667358221220e60248d1ac330c9494f10bbf24559fb9f0c0d95880ba4a6bef34458a2b2a2b6f64736f6c63430008110033",
    "linkReferences": {},
    "deployedLinkReferences": {}
}