{
    "_format": "hh-sol-artifact-1",
    "contractName": "Supplier",
    "sourceName": "contracts/Supplier.sol",
    "abi": [
        {
            "anonymous": false,
            "inputs": [
                {
                    "indexed": false,
                    "internalType": "uint256",
                    "name": "itemIndex",
                    "type": "uint256"
                },
                {
                    "indexed": false,
                    "internalType": "uint256",
                    "name": "itemPrice",
                    "type": "uint256"
                },
                {
                    "indexed": false,
                    "internalType": "uint256",
                    "name": "itemNumber",
                    "type": "uint256"
                },
                {
                    "indexed": false,
                    "internalType": "string",
                    "name": "itemName",
                    "type": "string"
                },
                {
                    "indexed": false,
                    "internalType": "string",
                    "name": "itemSource",
                    "type": "string"
                },
                {
                    "indexed": false,
                    "internalType": "string",
                    "name": "itemDestination",
                    "type": "string"
                }
            ],
            "name": "supplierItem",
            "type": "event"
        },
        {
            "inputs": [],
            "name": "getItemIndex",
            "outputs": [
                {
                    "internalType": "uint256",
                    "name": "",
                    "type": "uint256"
                }
            ],
            "stateMutability": "view",
            "type": "function"
        },
        {
            "inputs": [],
            "name": "isOwner",
            "outputs": [
                {
                    "internalType": "bool",
                    "name": "",
                    "type": "bool"
                }
            ],
            "stateMutability": "view",
            "type": "function"
        },
        {
            "inputs": [
                {
                    "internalType": "uint256",
                    "name": "",
                    "type": "uint256"
                }
            ],
            "name": "supplierItems",
            "outputs": [
                {
                    "internalType": "uint256",
                    "name": "itemNumber",
                    "type": "uint256"
                },
                {
                    "internalType": "uint256",
                    "name": "itemPrice",
                    "type": "uint256"
                },
                {
                    "internalType": "string",
                    "name": "itemName",
                    "type": "string"
                },
                {
                    "internalType": "string",
                    "name": "itemSource",
                    "type": "string"
                },
                {
                    "internalType": "string",
                    "name": "itemDestination",
                    "type": "string"
                }
            ],
            "stateMutability": "view",
            "type": "function"
        },
        {
            "inputs": [
                {
                    "internalType": "uint256",
                    "name": "_itemIndex",
                    "type": "uint256"
                }
            ],
            "name": "triggerPayment",
            "outputs": [],
            "stateMutability": "payable",
            "type": "function"
        },
        {
            "inputs": [
                {
                    "internalType": "uint256",
                    "name": "_itemNumber",
                    "type": "uint256"
                },
                {
                    "internalType": "string",
                    "name": "_itemName",
                    "type": "string"
                },
                {
                    "internalType": "string",
                    "name": "_itemSource",
                    "type": "string"
                },
                {
                    "internalType": "string",
                    "name": "_itemDestination",
                    "type": "string"
                },
                {
                    "internalType": "uint256",
                    "name": "_itemPrice",
                    "type": "uint256"
                }
            ],
            "name": "updateForSupplier",
            "outputs": [],
            "stateMutability": "nonpayable",
            "type": "function"
        }
    ],
    "bytecode": "0x608060405234801561001057600080fd5b50336000806101000a81548173ffffffffffffffffffffffffffffffffffffffff021916908373ffffffffffffffffffffffffffffffffffffffff160217905550610dfb806100606000396000f3fe60806040526004361061004a5760003560e01c806302b037e61461004f578063800fb83f146100905780638f32d59b146100ac578063b4e6fabd146100d7578063ea8535d714610102575b600080fd5b34801561005b57600080fd5b5061007660048036038101906100719190610581565b61012b565b60405161008795949392919061064d565b60405180910390f35b6100aa60048036038101906100a59190610581565b6102f9565b005b3480156100b857600080fd5b506100c1610354565b6040516100ce91906106d0565b60405180910390f35b3480156100e357600080fd5b506100ec6103aa565b6040516100f991906106eb565b60405180910390f35b34801561010e57600080fd5b506101296004803603810190610124919061083b565b6103b4565b005b600260205280600052604060002060009150905080600001549080600101549080600201805461015a90610939565b80601f016020809104026020016040519081016040528092919081815260200182805461018690610939565b80156101d35780601f106101a8576101008083540402835291602001916101d3565b820191906000526020600020905b8154815290600101906020018083116101b657829003601f168201915b5050505050908060030180546101e890610939565b80601f016020809104026020016040519081016040528092919081815260200182805461021490610939565b80156102615780601f1061023657610100808354040283529160200191610261565b820191906000526020600020905b81548152906001019060200180831161024457829003601f168201915b50505050509080600401805461027690610939565b80601f01602080910402602001604051908101604052809291908181526020018280546102a290610939565b80156102ef5780601f106102c4576101008083540402835291602001916102ef565b820191906000526020600020905b8154815290600101906020018083116102d257829003601f168201915b5050505050905085565b34600260008381526020019081526020016000206001015414610351576040517f08c379a0000000000000000000000000000000000000000000000000000000008152600401610348906109b6565b60405180910390fd5b50565b60003373ffffffffffffffffffffffffffffffffffffffff1660008054906101000a900473ffffffffffffffffffffffffffffffffffffffff1673ffffffffffffffffffffffffffffffffffffffff1614905090565b6000600154905090565b84600260006001548152602001908152602001600020600001819055508360026000600154815260200190815260200160002060020190816103f69190610b82565b5082600260006001548152602001908152602001600020600301908161041c9190610b82565b508160026000600154815260200190815260200160002060040190816104429190610b82565b5080600260006001548152602001908152602001600020600101819055507f022769b9e6d25ca988002860795d218a5d6b5470817d4fb7923980bf98b7ee76600154600260006001548152602001908152602001600020600101546002600060015481526020019081526020016000206000015460026000600154815260200190815260200160002060020160026000600154815260200190815260200160002060030160026000600154815260200190815260200160002060040160405161051096959493929190610cd8565b60405180910390a16001600081548092919061052b90610d7d565b91905055505050505050565b6000604051905090565b600080fd5b600080fd5b6000819050919050565b61055e8161054b565b811461056957600080fd5b50565b60008135905061057b81610555565b92915050565b60006020828403121561059757610596610541565b5b60006105a58482850161056c565b91505092915050565b6105b78161054b565b82525050565b600081519050919050565b600082825260208201905092915050565b60005b838110156105f75780820151818401526020810190506105dc565b60008484015250505050565b6000601f19601f8301169050919050565b600061061f826105bd565b61062981856105c8565b93506106398185602086016105d9565b61064281610603565b840191505092915050565b600060a08201905061066260008301886105ae565b61066f60208301876105ae565b81810360408301526106818186610614565b905081810360608301526106958185610614565b905081810360808301526106a98184610614565b90509695505050505050565b60008115159050919050565b6106ca816106b5565b82525050565b60006020820190506106e560008301846106c1565b92915050565b600060208201905061070060008301846105ae565b92915050565b600080fd5b600080fd5b7f4e487b7100000000000000000000000000000000000000000000000000000000600052604160045260246000fd5b61074882610603565b810181811067ffffffffffffffff8211171561076757610766610710565b5b80604052505050565b600061077a610537565b9050610786828261073f565b919050565b600067ffffffffffffffff8211156107a6576107a5610710565b5b6107af82610603565b9050602081019050919050565b82818337600083830152505050565b60006107de6107d98461078b565b610770565b9050828152602081018484840111156107fa576107f961070b565b5b6108058482856107bc565b509392505050565b600082601f83011261082257610821610706565b5b81356108328482602086016107cb565b91505092915050565b600080600080600060a0868803121561085757610856610541565b5b60006108658882890161056c565b955050602086013567ffffffffffffffff81111561088657610885610546565b5b6108928882890161080d565b945050604086013567ffffffffffffffff8111156108b3576108b2610546565b5b6108bf8882890161080d565b935050606086013567ffffffffffffffff8111156108e0576108df610546565b5b6108ec8882890161080d565b92505060806108fd8882890161056c565b9150509295509295909350565b7f4e487b7100000000000000000000000000000000000000000000000000000000600052602260045260246000fd5b6000600282049050600182168061095157607f821691505b6020821081036109645761096361090a565b5b50919050565b7f46756c6c207061796d656e742069732072657175697265640000000000000000600082015250565b60006109a06018836105c8565b91506109ab8261096a565b602082019050919050565b600060208201905081810360008301526109cf81610993565b9050919050565b60008190508160005260206000209050919050565b60006020601f8301049050919050565b600082821b905092915050565b600060088302610a387fffffffffffffffffffffffffffffffffffffffffffffffffffffffffffffffff826109fb565b610a4286836109fb565b95508019841693508086168417925050509392505050565b6000819050919050565b6000610a7f610a7a610a758461054b565b610a5a565b61054b565b9050919050565b6000819050919050565b610a9983610a64565b610aad610aa582610a86565b848454610a08565b825550505050565b600090565b610ac2610ab5565b610acd818484610a90565b505050565b5b81811015610af157610ae6600082610aba565b600181019050610ad3565b5050565b601f821115610b3657610b07816109d6565b610b10846109eb565b81016020851015610b1f578190505b610b33610b2b856109eb565b830182610ad2565b50505b505050565b600082821c905092915050565b6000610b5960001984600802610b3b565b1980831691505092915050565b6000610b728383610b48565b9150826002028217905092915050565b610b8b826105bd565b67ffffffffffffffff811115610ba457610ba3610710565b5b610bae8254610939565b610bb9828285610af5565b600060209050601f831160018114610bec5760008415610bda578287015190505b610be48582610b66565b865550610c4c565b601f198416610bfa866109d6565b60005b82811015610c2257848901518255600182019150602085019450602081019050610bfd565b86831015610c3f5784890151610c3b601f891682610b48565b8355505b6001600288020188555050505b505050505050565b60008154610c6181610939565b610c6b81866105c8565b94506001821660008114610c865760018114610c9c57610ccf565b60ff198316865281151560200286019350610ccf565b610ca5856109d6565b60005b83811015610cc757815481890152600182019150602081019050610ca8565b808801955050505b50505092915050565b600060c082019050610ced60008301896105ae565b610cfa60208301886105ae565b610d0760408301876105ae565b8181036060830152610d198186610c54565b90508181036080830152610d2d8185610c54565b905081810360a0830152610d418184610c54565b9050979650505050505050565b7f4e487b7100000000000000000000000000000000000000000000000000000000600052601160045260246000fd5b6000610d888261054b565b91507fffffffffffffffffffffffffffffffffffffffffffffffffffffffffffffffff8203610dba57610db9610d4e565b5b60018201905091905056fea264697066735822122080c40134eb7328caf3cfa1e227367bbb2fecc7973dd6f16864f2754f6c00a77a64736f6c63430008110033",
    "linkReferences": {},
    "deployedLinkReferences": {}
}